{
  "_format": "hh-sol-artifact-1",
  "contractName": "RMRKMultiResourceImpl",
  "sourceName": "@rmrk-team/evm-contracts/contracts/implementations/RMRKMultiResourceImpl.sol",
  "abi": [
    {
      "inputs": [
        {
          "internalType": "string",
          "name": "name",
          "type": "string"
        },
        {
          "internalType": "string",
          "name": "symbol",
          "type": "string"
        },
        {
          "internalType": "uint256",
          "name": "maxSupply_",
          "type": "uint256"
        },
        {
          "internalType": "uint256",
          "name": "pricePerMint_",
          "type": "uint256"
        },
        {
          "internalType": "string",
          "name": "collectionMetadata_",
          "type": "string"
        },
        {
          "internalType": "string",
          "name": "tokenURI_",
          "type": "string"
        },
        {
          "internalType": "address",
          "name": "royaltyRecipient",
          "type": "address"
        },
        {
          "internalType": "uint256",
          "name": "royaltyPercentageBps",
          "type": "uint256"
        }
      ],
      "stateMutability": "nonpayable",
      "type": "constructor"
    },
    {
      "inputs": [],
      "name": "ERC721AddressZeroIsNotaValidOwner",
      "type": "error"
    },
    {
      "inputs": [],
      "name": "ERC721ApprovalToCurrentOwner",
      "type": "error"
    },
    {
      "inputs": [],
      "name": "ERC721ApproveCallerIsNotOwnerNorApprovedForAll",
      "type": "error"
    },
    {
      "inputs": [],
      "name": "ERC721ApproveToCaller",
      "type": "error"
    },
    {
      "inputs": [],
      "name": "ERC721InvalidTokenId",
      "type": "error"
    },
    {
      "inputs": [],
      "name": "ERC721MintToTheZeroAddress",
      "type": "error"
    },
    {
      "inputs": [],
      "name": "ERC721NotApprovedOrOwner",
      "type": "error"
    },
    {
      "inputs": [],
      "name": "ERC721TokenAlreadyMinted",
      "type": "error"
    },
    {
      "inputs": [],
      "name": "ERC721TransferFromIncorrectOwner",
      "type": "error"
    },
    {
      "inputs": [],
      "name": "ERC721TransferToNonReceiverImplementer",
      "type": "error"
    },
    {
      "inputs": [],
      "name": "ERC721TransferToTheZeroAddress",
      "type": "error"
    },
    {
      "inputs": [],
      "name": "RMRKApprovalForResourcesToCurrentOwner",
      "type": "error"
    },
    {
      "inputs": [],
      "name": "RMRKApproveForResourcesCallerIsNotOwnerNorApprovedForAll",
      "type": "error"
    },
    {
      "inputs": [],
      "name": "RMRKApproveForResourcesToCaller",
      "type": "error"
    },
    {
      "inputs": [],
      "name": "RMRKBadPriorityListLength",
      "type": "error"
    },
    {
      "inputs": [],
      "name": "RMRKIndexOutOfRange",
      "type": "error"
    },
    {
      "inputs": [],
      "name": "RMRKLocked",
      "type": "error"
    },
    {
      "inputs": [],
      "name": "RMRKMaxPendingResourcesReached",
      "type": "error"
    },
    {
      "inputs": [],
      "name": "RMRKMintOverMax",
      "type": "error"
    },
    {
      "inputs": [],
      "name": "RMRKMintUnderpriced",
      "type": "error"
    },
    {
      "inputs": [],
      "name": "RMRKMintZero",
      "type": "error"
    },
    {
      "inputs": [],
      "name": "RMRKNewContributorIsZeroAddress",
      "type": "error"
    },
    {
      "inputs": [],
      "name": "RMRKNewOwnerIsZeroAddress",
      "type": "error"
    },
    {
      "inputs": [],
      "name": "RMRKNoResourceMatchingId",
      "type": "error"
    },
    {
      "inputs": [],
      "name": "RMRKNotApprovedForResourcesOrOwner",
      "type": "error"
    },
    {
      "inputs": [],
      "name": "RMRKNotOwner",
      "type": "error"
    },
    {
      "inputs": [],
      "name": "RMRKNotOwnerOrContributor",
      "type": "error"
    },
    {
      "inputs": [],
      "name": "RMRKResourceAlreadyExists",
      "type": "error"
    },
    {
      "inputs": [],
      "name": "RMRKWriteToZero",
      "type": "error"
    },
    {
      "anonymous": false,
      "inputs": [
        {
          "indexed": true,
          "internalType": "address",
          "name": "owner",
          "type": "address"
        },
        {
          "indexed": true,
          "internalType": "address",
          "name": "approved",
          "type": "address"
        },
        {
          "indexed": true,
          "internalType": "uint256",
          "name": "tokenId",
          "type": "uint256"
        }
      ],
      "name": "Approval",
      "type": "event"
    },
    {
      "anonymous": false,
      "inputs": [
        {
          "indexed": true,
          "internalType": "address",
          "name": "owner",
          "type": "address"
        },
        {
          "indexed": true,
          "internalType": "address",
          "name": "operator",
          "type": "address"
        },
        {
          "indexed": false,
          "internalType": "bool",
          "name": "approved",
          "type": "bool"
        }
      ],
      "name": "ApprovalForAll",
      "type": "event"
    },
    {
      "anonymous": false,
      "inputs": [
        {
          "indexed": true,
          "internalType": "address",
          "name": "owner",
          "type": "address"
        },
        {
          "indexed": true,
          "internalType": "address",
          "name": "operator",
          "type": "address"
        },
        {
          "indexed": false,
          "internalType": "bool",
          "name": "approved",
          "type": "bool"
        }
      ],
      "name": "ApprovalForAllForResources",
      "type": "event"
    },
    {
      "anonymous": false,
      "inputs": [
        {
          "indexed": true,
          "internalType": "address",
          "name": "owner",
          "type": "address"
        },
        {
          "indexed": true,
          "internalType": "address",
          "name": "approved",
          "type": "address"
        },
        {
          "indexed": true,
          "internalType": "uint256",
          "name": "tokenId",
          "type": "uint256"
        }
      ],
      "name": "ApprovalForResources",
      "type": "event"
    },
    {
      "anonymous": false,
      "inputs": [
        {
          "indexed": true,
          "internalType": "address",
          "name": "previousOwner",
          "type": "address"
        },
        {
          "indexed": true,
          "internalType": "address",
          "name": "newOwner",
          "type": "address"
        }
      ],
      "name": "OwnershipTransferred",
      "type": "event"
    },
    {
      "anonymous": false,
      "inputs": [
        {
          "indexed": true,
          "internalType": "uint256",
          "name": "tokenId",
          "type": "uint256"
        },
        {
          "indexed": true,
          "internalType": "uint64",
          "name": "resourceId",
          "type": "uint64"
        }
      ],
      "name": "ResourceAccepted",
      "type": "event"
    },
    {
      "anonymous": false,
      "inputs": [
        {
          "indexed": true,
          "internalType": "uint256",
          "name": "tokenId",
          "type": "uint256"
        },
        {
          "indexed": true,
          "internalType": "uint64",
          "name": "resourceId",
          "type": "uint64"
        }
      ],
      "name": "ResourceAddedToToken",
      "type": "event"
    },
    {
      "anonymous": false,
      "inputs": [
        {
          "indexed": true,
          "internalType": "uint256",
          "name": "tokenId",
          "type": "uint256"
        },
        {
          "indexed": true,
          "internalType": "uint64",
          "name": "resourceId",
          "type": "uint64"
        },
        {
          "indexed": true,
          "internalType": "uint64",
          "name": "overwritesId",
          "type": "uint64"
        }
      ],
      "name": "ResourceOverwriteProposed",
      "type": "event"
    },
    {
      "anonymous": false,
      "inputs": [
        {
          "indexed": true,
          "internalType": "uint256",
          "name": "tokenId",
          "type": "uint256"
        },
        {
          "indexed": true,
          "internalType": "uint64",
          "name": "oldResourceId",
          "type": "uint64"
        },
        {
          "indexed": true,
          "internalType": "uint64",
          "name": "newResourceId",
          "type": "uint64"
        }
      ],
      "name": "ResourceOverwritten",
      "type": "event"
    },
    {
      "anonymous": false,
      "inputs": [
        {
          "indexed": true,
          "internalType": "uint256",
          "name": "tokenId",
          "type": "uint256"
        }
      ],
      "name": "ResourcePrioritySet",
      "type": "event"
    },
    {
      "anonymous": false,
      "inputs": [
        {
          "indexed": true,
          "internalType": "uint256",
          "name": "tokenId",
          "type": "uint256"
        },
        {
          "indexed": true,
          "internalType": "uint64",
          "name": "resourceId",
          "type": "uint64"
        }
      ],
      "name": "ResourceRejected",
      "type": "event"
    },
    {
      "anonymous": false,
      "inputs": [
        {
          "indexed": true,
          "internalType": "uint64",
          "name": "resourceId",
          "type": "uint64"
        }
      ],
      "name": "ResourceSet",
      "type": "event"
    },
    {
      "anonymous": false,
      "inputs": [
        {
          "indexed": true,
          "internalType": "address",
          "name": "from",
          "type": "address"
        },
        {
          "indexed": true,
          "internalType": "address",
          "name": "to",
          "type": "address"
        },
        {
          "indexed": true,
          "internalType": "uint256",
          "name": "tokenId",
          "type": "uint256"
        }
      ],
      "name": "Transfer",
      "type": "event"
    },
    {
      "inputs": [],
      "name": "VERSION",
      "outputs": [
        {
          "internalType": "string",
          "name": "",
          "type": "string"
        }
      ],
      "stateMutability": "view",
      "type": "function"
    },
    {
      "inputs": [
        {
          "internalType": "uint256",
          "name": "tokenId",
          "type": "uint256"
        },
        {
          "internalType": "uint256",
          "name": "index",
          "type": "uint256"
        }
      ],
      "name": "acceptResource",
      "outputs": [],
      "stateMutability": "nonpayable",
      "type": "function"
    },
    {
      "inputs": [
        {
          "internalType": "address",
          "name": "contributor",
          "type": "address"
        }
      ],
      "name": "addContributor",
      "outputs": [],
      "stateMutability": "nonpayable",
      "type": "function"
    },
    {
      "inputs": [
        {
          "internalType": "string",
          "name": "metadataURI",
          "type": "string"
        }
      ],
      "name": "addResourceEntry",
      "outputs": [],
      "stateMutability": "nonpayable",
      "type": "function"
    },
    {
      "inputs": [
        {
          "internalType": "uint256",
          "name": "tokenId",
          "type": "uint256"
        },
        {
          "internalType": "uint64",
          "name": "resourceId",
          "type": "uint64"
        },
        {
          "internalType": "uint64",
          "name": "overwrites",
          "type": "uint64"
        }
      ],
      "name": "addResourceToToken",
      "outputs": [],
      "stateMutability": "nonpayable",
      "type": "function"
    },
    {
      "inputs": [
        {
          "internalType": "address",
          "name": "to",
          "type": "address"
        },
        {
          "internalType": "uint256",
          "name": "tokenId",
          "type": "uint256"
        }
      ],
      "name": "approve",
      "outputs": [],
      "stateMutability": "nonpayable",
      "type": "function"
    },
    {
      "inputs": [
        {
          "internalType": "address",
          "name": "to",
          "type": "address"
        },
        {
          "internalType": "uint256",
          "name": "tokenId",
          "type": "uint256"
        }
      ],
      "name": "approveForResources",
      "outputs": [],
      "stateMutability": "nonpayable",
      "type": "function"
    },
    {
      "inputs": [
        {
          "internalType": "address",
          "name": "owner",
          "type": "address"
        }
      ],
      "name": "balanceOf",
      "outputs": [
        {
          "internalType": "uint256",
          "name": "",
          "type": "uint256"
        }
      ],
      "stateMutability": "view",
      "type": "function"
    },
    {
      "inputs": [],
      "name": "collectionMetadata",
      "outputs": [
        {
          "internalType": "string",
          "name": "",
          "type": "string"
        }
      ],
      "stateMutability": "view",
      "type": "function"
    },
    {
      "inputs": [
        {
          "internalType": "uint256",
          "name": "tokenId",
          "type": "uint256"
        }
      ],
      "name": "getActiveResourcePriorities",
      "outputs": [
        {
          "internalType": "uint16[]",
          "name": "",
          "type": "uint16[]"
        }
      ],
      "stateMutability": "view",
      "type": "function"
    },
    {
      "inputs": [
        {
          "internalType": "uint256",
          "name": "tokenId",
          "type": "uint256"
        }
      ],
      "name": "getActiveResources",
      "outputs": [
        {
          "internalType": "uint64[]",
          "name": "",
          "type": "uint64[]"
        }
      ],
      "stateMutability": "view",
      "type": "function"
    },
    {
      "inputs": [],
      "name": "getAllResources",
      "outputs": [
        {
          "internalType": "uint64[]",
          "name": "",
          "type": "uint64[]"
        }
      ],
      "stateMutability": "view",
      "type": "function"
    },
    {
      "inputs": [
        {
          "internalType": "uint256",
          "name": "tokenId",
          "type": "uint256"
        }
      ],
      "name": "getApproved",
      "outputs": [
        {
          "internalType": "address",
          "name": "",
          "type": "address"
        }
      ],
      "stateMutability": "view",
      "type": "function"
    },
    {
      "inputs": [
        {
          "internalType": "uint256",
          "name": "tokenId",
          "type": "uint256"
        }
      ],
      "name": "getApprovedForResources",
      "outputs": [
        {
          "internalType": "address",
          "name": "",
          "type": "address"
        }
      ],
      "stateMutability": "view",
      "type": "function"
    },
    {
      "inputs": [],
      "name": "getLock",
      "outputs": [
        {
          "internalType": "bool",
          "name": "",
          "type": "bool"
        }
      ],
      "stateMutability": "view",
      "type": "function"
    },
    {
      "inputs": [
        {
          "internalType": "uint256",
          "name": "tokenId",
          "type": "uint256"
        }
      ],
      "name": "getPendingResources",
      "outputs": [
        {
          "internalType": "uint64[]",
          "name": "",
          "type": "uint64[]"
        }
      ],
      "stateMutability": "view",
      "type": "function"
    },
    {
      "inputs": [
        {
          "internalType": "uint64",
          "name": "resourceId",
          "type": "uint64"
        }
      ],
      "name": "getResourceMeta",
      "outputs": [
        {
          "internalType": "string",
          "name": "",
          "type": "string"
        }
      ],
      "stateMutability": "view",
      "type": "function"
    },
    {
      "inputs": [
        {
          "internalType": "uint256",
          "name": "tokenId",
          "type": "uint256"
        },
        {
          "internalType": "uint64",
          "name": "resourceIndex",
          "type": "uint64"
        }
      ],
      "name": "getResourceMetaForToken",
      "outputs": [
        {
          "internalType": "string",
          "name": "",
          "type": "string"
        }
      ],
      "stateMutability": "view",
      "type": "function"
    },
    {
      "inputs": [
        {
          "internalType": "uint256",
          "name": "tokenId",
          "type": "uint256"
        },
        {
          "internalType": "uint64",
          "name": "resourceId",
          "type": "uint64"
        }
      ],
      "name": "getResourceOverwrites",
      "outputs": [
        {
          "internalType": "uint64",
          "name": "",
          "type": "uint64"
        }
      ],
      "stateMutability": "view",
      "type": "function"
    },
    {
      "inputs": [],
      "name": "getRoyaltyRecipient",
      "outputs": [
        {
          "internalType": "address",
          "name": "",
          "type": "address"
        }
      ],
      "stateMutability": "view",
      "type": "function"
    },
    {
      "inputs": [
        {
          "internalType": "address",
          "name": "owner",
          "type": "address"
        },
        {
          "internalType": "address",
          "name": "operator",
          "type": "address"
        }
      ],
      "name": "isApprovedForAll",
      "outputs": [
        {
          "internalType": "bool",
          "name": "",
          "type": "bool"
        }
      ],
      "stateMutability": "view",
      "type": "function"
    },
    {
      "inputs": [
        {
          "internalType": "address",
          "name": "owner",
          "type": "address"
        },
        {
          "internalType": "address",
          "name": "operator",
          "type": "address"
        }
      ],
      "name": "isApprovedForAllForResources",
      "outputs": [
        {
          "internalType": "bool",
          "name": "",
          "type": "bool"
        }
      ],
      "stateMutability": "view",
      "type": "function"
    },
    {
      "inputs": [
        {
          "internalType": "address",
          "name": "contributor",
          "type": "address"
        }
      ],
      "name": "isContributor",
      "outputs": [
        {
          "internalType": "bool",
          "name": "",
          "type": "bool"
        }
      ],
      "stateMutability": "view",
      "type": "function"
    },
    {
      "inputs": [],
      "name": "maxSupply",
      "outputs": [
        {
          "internalType": "uint256",
          "name": "",
          "type": "uint256"
        }
      ],
      "stateMutability": "view",
      "type": "function"
    },
    {
      "inputs": [
        {
          "internalType": "address",
          "name": "to",
          "type": "address"
        },
        {
          "internalType": "uint256",
          "name": "numToMint",
          "type": "uint256"
        }
      ],
      "name": "mint",
      "outputs": [],
      "stateMutability": "payable",
      "type": "function"
    },
    {
      "inputs": [],
      "name": "name",
      "outputs": [
        {
          "internalType": "string",
          "name": "",
          "type": "string"
        }
      ],
      "stateMutability": "view",
      "type": "function"
    },
    {
      "inputs": [],
      "name": "owner",
      "outputs": [
        {
          "internalType": "address",
          "name": "",
          "type": "address"
        }
      ],
      "stateMutability": "view",
      "type": "function"
    },
    {
      "inputs": [
        {
          "internalType": "uint256",
          "name": "tokenId",
          "type": "uint256"
        }
      ],
      "name": "ownerOf",
      "outputs": [
        {
          "internalType": "address",
          "name": "",
          "type": "address"
        }
      ],
      "stateMutability": "view",
      "type": "function"
    },
    {
      "inputs": [],
      "name": "pricePerMint",
      "outputs": [
        {
          "internalType": "uint256",
          "name": "",
          "type": "uint256"
        }
      ],
      "stateMutability": "view",
      "type": "function"
    },
    {
      "inputs": [
        {
          "internalType": "uint256",
          "name": "tokenId",
          "type": "uint256"
        }
      ],
      "name": "rejectAllResources",
      "outputs": [],
      "stateMutability": "nonpayable",
      "type": "function"
    },
    {
      "inputs": [
        {
          "internalType": "uint256",
          "name": "tokenId",
          "type": "uint256"
        },
        {
          "internalType": "uint256",
          "name": "index",
          "type": "uint256"
        }
      ],
      "name": "rejectResource",
      "outputs": [],
      "stateMutability": "nonpayable",
      "type": "function"
    },
    {
      "inputs": [],
      "name": "renounceOwnership",
      "outputs": [],
      "stateMutability": "nonpayable",
      "type": "function"
    },
    {
      "inputs": [
        {
          "internalType": "address",
          "name": "contributor",
          "type": "address"
        }
      ],
      "name": "revokeContributor",
      "outputs": [],
      "stateMutability": "nonpayable",
      "type": "function"
    },
    {
      "inputs": [
        {
          "internalType": "uint256",
          "name": "tokenId",
          "type": "uint256"
        },
        {
          "internalType": "uint256",
          "name": "salePrice",
          "type": "uint256"
        }
      ],
      "name": "royaltyInfo",
      "outputs": [
        {
          "internalType": "address",
          "name": "receiver",
          "type": "address"
        },
        {
          "internalType": "uint256",
          "name": "royaltyAmount",
          "type": "uint256"
        }
      ],
      "stateMutability": "view",
      "type": "function"
    },
    {
      "inputs": [
        {
          "internalType": "address",
          "name": "from",
          "type": "address"
        },
        {
          "internalType": "address",
          "name": "to",
          "type": "address"
        },
        {
          "internalType": "uint256",
          "name": "tokenId",
          "type": "uint256"
        }
      ],
      "name": "safeTransferFrom",
      "outputs": [],
      "stateMutability": "nonpayable",
      "type": "function"
    },
    {
      "inputs": [
        {
          "internalType": "address",
          "name": "from",
          "type": "address"
        },
        {
          "internalType": "address",
          "name": "to",
          "type": "address"
        },
        {
          "internalType": "uint256",
          "name": "tokenId",
          "type": "uint256"
        },
        {
          "internalType": "bytes",
          "name": "data",
          "type": "bytes"
        }
      ],
      "name": "safeTransferFrom",
      "outputs": [],
      "stateMutability": "nonpayable",
      "type": "function"
    },
    {
      "inputs": [
        {
          "internalType": "address",
          "name": "operator",
          "type": "address"
        },
        {
          "internalType": "bool",
          "name": "approved",
          "type": "bool"
        }
      ],
      "name": "setApprovalForAll",
      "outputs": [],
      "stateMutability": "nonpayable",
      "type": "function"
    },
    {
      "inputs": [
        {
          "internalType": "address",
          "name": "operator",
          "type": "address"
        },
        {
          "internalType": "bool",
          "name": "approved",
          "type": "bool"
        }
      ],
      "name": "setApprovalForAllForResources",
      "outputs": [],
      "stateMutability": "nonpayable",
      "type": "function"
    },
    {
      "inputs": [],
      "name": "setLock",
      "outputs": [],
      "stateMutability": "nonpayable",
      "type": "function"
    },
    {
      "inputs": [
        {
          "internalType": "uint256",
          "name": "tokenId",
          "type": "uint256"
        },
        {
          "internalType": "uint16[]",
          "name": "priorities",
          "type": "uint16[]"
        }
      ],
      "name": "setPriority",
      "outputs": [],
      "stateMutability": "nonpayable",
      "type": "function"
    },
    {
      "inputs": [
        {
          "internalType": "bytes4",
          "name": "interfaceId",
          "type": "bytes4"
        }
      ],
      "name": "supportsInterface",
      "outputs": [
        {
          "internalType": "bool",
          "name": "",
          "type": "bool"
        }
      ],
      "stateMutability": "view",
      "type": "function"
    },
    {
      "inputs": [],
      "name": "symbol",
      "outputs": [
        {
          "internalType": "string",
          "name": "",
          "type": "string"
        }
      ],
      "stateMutability": "view",
      "type": "function"
    },
    {
      "inputs": [
        {
          "internalType": "uint256",
          "name": "",
          "type": "uint256"
        }
      ],
      "name": "tokenURI",
      "outputs": [
        {
          "internalType": "string",
          "name": "",
          "type": "string"
        }
      ],
      "stateMutability": "view",
      "type": "function"
    },
    {
      "inputs": [],
      "name": "totalResources",
      "outputs": [
        {
          "internalType": "uint256",
          "name": "",
          "type": "uint256"
        }
      ],
      "stateMutability": "view",
      "type": "function"
    },
    {
      "inputs": [],
      "name": "totalSupply",
      "outputs": [
        {
          "internalType": "uint256",
          "name": "",
          "type": "uint256"
        }
      ],
      "stateMutability": "view",
      "type": "function"
    },
    {
      "inputs": [
        {
          "internalType": "address",
          "name": "from",
          "type": "address"
        },
        {
          "internalType": "address",
          "name": "to",
          "type": "address"
        },
        {
          "internalType": "uint256",
          "name": "tokenId",
          "type": "uint256"
        }
      ],
      "name": "transferFrom",
      "outputs": [],
      "stateMutability": "nonpayable",
      "type": "function"
    },
    {
      "inputs": [
        {
          "internalType": "address",
          "name": "newOwner",
          "type": "address"
        }
      ],
      "name": "transferOwnership",
      "outputs": [],
      "stateMutability": "nonpayable",
      "type": "function"
    },
    {
      "inputs": [
        {
          "internalType": "address",
          "name": "newRoyaltyRecipient",
          "type": "address"
        }
      ],
      "name": "updateRoyaltyRecipient",
      "outputs": [],
      "stateMutability": "nonpayable",
      "type": "function"
    },
    {
      "inputs": [
        {
          "internalType": "address",
          "name": "to",
          "type": "address"
        },
        {
          "internalType": "uint256",
          "name": "amount",
          "type": "uint256"
        }
      ],
      "name": "withdrawRaised",
      "outputs": [],
      "stateMutability": "nonpayable",
      "type": "function"
    }
  ],
  "bytecode": "0x60c06040523480156200001157600080fd5b506040516200328c3803806200328c83398101604081905262000034916200020b565b878781818585898c8c6200004833620000be565b60809190915260a0526200005c8162000117565b50600480546001600160a01b0319166001600160a01b03841617905560055550600e6200008a838262000383565b50600f62000099828262000383565b50505050508260169081620000af919062000383565b5050505050505050506200044f565b600080546001600160a01b03838116610100818102610100600160a81b0319851617855560405193049190911692909183917f8be0079c531659141344cd1fd0a4f28419497f9722a3daafe3b4186f6b6457e091a35050565b600362000125828262000383565b5050565b634e487b7160e01b600052604160045260246000fd5b600082601f8301126200015157600080fd5b81516001600160401b03808211156200016e576200016e62000129565b604051601f8301601f19908116603f0116810190828211818310171562000199576200019962000129565b81604052838152602092508683858801011115620001b657600080fd5b600091505b83821015620001da5785820183015181830184015290820190620001bb565b600093810190920192909252949350505050565b80516001600160a01b03811681146200020657600080fd5b919050565b600080600080600080600080610100898b0312156200022957600080fd5b88516001600160401b03808211156200024157600080fd5b6200024f8c838d016200013f565b995060208b01519150808211156200026657600080fd5b620002748c838d016200013f565b985060408b0151975060608b0151965060808b01519150808211156200029957600080fd5b620002a78c838d016200013f565b955060a08b0151915080821115620002be57600080fd5b50620002cd8b828c016200013f565b935050620002de60c08a01620001ee565b915060e089015190509295985092959890939650565b600181811c908216806200030957607f821691505b6020821081036200032a57634e487b7160e01b600052602260045260246000fd5b50919050565b601f8211156200037e57600081815260208120601f850160051c81016020861015620003595750805b601f850160051c820191505b818110156200037a5782815560010162000365565b5050505b505050565b81516001600160401b038111156200039f576200039f62000129565b620003b781620003b08454620002f4565b8462000330565b602080601f831160018114620003ef5760008415620003d65750858301515b600019600386901b1c1916600185901b1785556200037a565b600085815260208120601f198616915b828110156200042057888601518255948401946001909101908401620003ff565b50858210156200043f5787850151600019600388901b60f8161c191681555b5050505050600190811b01905550565b60805160a051612e026200048a600039600081816107880152610e700152600081816107db01528181610db50152610e1d0152612e026000f3fe6080604052600436106102ae5760003560e01c80637e5852d911610175578063c5610a29116100dc578063e889757011610095578063f2fde38b1161006f578063f2fde38b14610911578063f64669c314610931578063fe679c6214610951578063ffa1ad74146109ad57600080fd5b8063e88975701461085f578063e985e9c51461087f578063ed5fd0f5146108c857600080fd5b8063c5610a2914610779578063c87b56dd146107ac578063d5abeb01146107cc578063da7ba803146107ff578063dd6433d41461081f578063de90e14d1461083f57600080fd5b8063a0eaec431161012e578063a0eaec43146106b7578063a22cb465146106e4578063b579184f14610704578063b88d4fde14610724578063baace33e14610744578063c48a42431461075957600080fd5b80637e5852d914610614578063891141d61461062c57806389ed2edf1461064c5780638da5cb5b1461066157806395d89b411461068457806395edc18c1461069957600080fd5b806333ed28451161021957806370a08231116101d257806370a082311461056a578063715018a61461058a578063739817dd1461059f57806378816134146105bf5780637aba6f37146105df5780637b2e40fa146105f457600080fd5b806333ed2845146104c257806335ecc51d146104e257806340c10f191461050257806342842e0e146105155780636352211e1461053557806366f5a7471461055557600080fd5b80630fc499f51161026b5780630fc499f5146103a4578063135627cd146103dd57806318160ddd1461040a5780631d0d35f51461042957806323b872dd146104635780632a55205a1461048357600080fd5b806301ffc9a7146102b357806306fdde03146102e8578063081812fc1461030a578063095ea7b314610342578063096835be146103645780630ca01bf814610384575b600080fd5b3480156102bf57600080fd5b506102d36102ce3660046126e9565b6109df565b60405190151581526020015b60405180910390f35b3480156102f457600080fd5b506102fd610a4c565b6040516102df9190612753565b34801561031657600080fd5b5061032a610325366004612766565b610ade565b6040516001600160a01b0390911681526020016102df565b34801561034e57600080fd5b5061036261035d36600461279b565b610b05565b005b34801561037057600080fd5b5061036261037f3660046127c5565b610b91565b34801561039057600080fd5b5061036261039f3660046128ce565b610bde565b3480156103b057600080fd5b506103626103bf366004612916565b600480546001600160a01b0319166001600160a01b03831617905550565b3480156103e957600080fd5b506103fd6103f8366004612766565b610bfe565b6040516102df9190612931565b34801561041657600080fd5b506002545b6040519081526020016102df565b34801561043557600080fd5b506102d3610444366004612916565b6001600160a01b03166000908152600160208190526040909120541490565b34801561046f57600080fd5b5061036261047e366004612979565b610c88565b34801561048f57600080fd5b506104a361049e3660046129b5565b610c9d565b604080516001600160a01b0390931683526020830191909152016102df565b3480156104ce57600080fd5b506103626104dd36600461279b565b610cd3565b3480156104ee57600080fd5b506102fd6104fd3660046129ee565b610ce9565b61036261051036600461279b565b610db3565b34801561052157600080fd5b50610362610530366004612979565b610f09565b34801561054157600080fd5b5061032a610550366004612766565b610f24565b34801561056157600080fd5b5060155461041b565b34801561057657600080fd5b5061041b610585366004612916565b610f5a565b34801561059657600080fd5b50610362610f9f565b3480156105ab57600080fd5b506103626105ba3660046129b5565b610fb3565b3480156105cb57600080fd5b506103626105da36600461279b565b610fc7565b3480156105eb57600080fd5b5061036261104e565b34801561060057600080fd5b5061036261060f366004612766565b611065565b34801561062057600080fd5b5060005460ff166102d3565b34801561063857600080fd5b5061032a610647366004612766565b611078565b34801561065857600080fd5b506102fd61109f565b34801561066d57600080fd5b5060005461010090046001600160a01b031661032a565b34801561069057600080fd5b506102fd6110ae565b3480156106a557600080fd5b506004546001600160a01b031661032a565b3480156106c357600080fd5b506106d76106d2366004612766565b6110bd565b6040516102df9190612a09565b3480156106f057600080fd5b506103626106ff366004612a4a565b61114f565b34801561071057600080fd5b5061036261071f366004612916565b61115a565b34801561073057600080fd5b5061036261073f366004612a86565b6111a7565b34801561075057600080fd5b506106d76111c4565b34801561076557600080fd5b50610362610774366004612b01565b61124d565b34801561078557600080fd5b507f000000000000000000000000000000000000000000000000000000000000000061041b565b3480156107b857600080fd5b506102fd6107c7366004612766565b611269565b3480156107d857600080fd5b507f000000000000000000000000000000000000000000000000000000000000000061041b565b34801561080b57600080fd5b506102fd61081a366004612b3d565b6112f3565b34801561082b57600080fd5b5061036261083a3660046129b5565b611367565b34801561084b57600080fd5b5061036261085a366004612916565b61137b565b34801561086b57600080fd5b5061036261087a366004612a4a565b61139d565b34801561088b57600080fd5b506102d361089a366004612b60565b6001600160a01b03918216600090815260136020908152604080832093909416825291909152205460ff1690565b3480156108d457600080fd5b506102d36108e3366004612b60565b6001600160a01b039182166000908152600d6020908152604080832093909416825291909152205460ff1690565b34801561091d57600080fd5b5061036261092c366004612916565b611435565b34801561093d57600080fd5b506106d761094c366004612766565b611474565b34801561095d57600080fd5b5061099561096c366004612b3d565b60009182526007602090815260408084206001600160401b039384168552909152909120541690565b6040516001600160401b0390911681526020016102df565b3480156109b957600080fd5b506102fd604051806040016040528060068152602001650302e31312e360d41b81525081565b60006001600160e01b031982166301ffc9a760e01b1480610a1057506001600160e01b031982166380ac58cd60e01b145b80610a2b57506001600160e01b03198216635b5e139f60e01b145b80610a4657506001600160e01b0319821663c65a642560e01b145b92915050565b6060600e8054610a5b90612b8a565b80601f0160208091040260200160405190810160405280929190818152602001828054610a8790612b8a565b8015610ad45780601f10610aa957610100808354040283529160200191610ad4565b820191906000526020600020905b815481529060010190602001808311610ab757829003601f168201915b5050505050905090565b6000610ae9826114dd565b506000908152601260205260409020546001600160a01b031690565b6000610b1082610f24565b9050806001600160a01b0316836001600160a01b031603610b4457604051630591db6d60e01b815260040160405180910390fd5b336001600160a01b03821614801590610b645750610b62813361089a565b155b15610b8257604051634c12315960e11b815260040160405180910390fd5b610b8c8383611512565b505050565b82610b9b81611580565b610bd8848484808060200260200160405190810160405280939291908181526020018383602002808284376000920191909152506115a792505050565b50505050565b610be6611627565b6015805460010190819055610bfb908261166a565b50565b600081815260096020908152604091829020805483518184028101840190945280845260609392830182828015610c7c57602002820191906000526020600020906000905b82829054906101000a900461ffff1661ffff1681526020019060020190602082600101049283019260010382029150808411610c435790505b50505050509050919050565b80610c9281611781565b610bd88484846117a8565b6004546005546001600160a01b039091169060009061271090610cc09085612bda565b610cca9190612bf9565b90509250929050565b610cdb6118ec565b610ce5828261191d565b5050565b6001600160401b038116600090815260066020526040812080546060929190610d1190612b8a565b80601f0160208091040260200160405190810160405280929190818152602001828054610d3d90612b8a565b8015610d8a5780601f10610d5f57610100808354040283529160200191610d8a565b820191906000526020600020905b815481529060010190602001808311610d6d57829003601f168201915b505050505090508051600003610a46576040516348e2e83760e01b815260040160405180910390fd5b7f000000000000000000000000000000000000000000000000000000000000000060025410610df557604051635e91cdfb60e11b815260040160405180910390fd5b610dfd6119b7565b80610e1b5760405163376bec4d60e01b815260040160405180910390fd5b7f000000000000000000000000000000000000000000000000000000000000000060025482610e4a9190612c1b565b1115610e6957604051635e91cdfb60e11b815260040160405180910390fd5b6000610e957f000000000000000000000000000000000000000000000000000000000000000083612bda565b9050348114610eb75760405163f2ffecad60e01b815260040160405180910390fd5b60006002546001610ec89190612c1b565b60028054850190819055909150600090610ee3906001612c1b565b9050815b81811015610f0157610ef986826119db565b600101610ee7565b505050505050565b610b8c838383604051806020016040528060008152506111a7565b6000818152601060205260408120546001600160a01b031680610a465760405163089ba7e160e41b815260040160405180910390fd5b60006001600160a01b038216610f8357604051633bb9143360e11b815260040160405180910390fd5b506001600160a01b031660009081526011602052604090205490565b610fa76118ec565b610fb160006119f5565b565b81610fbd81611580565b610b8c8383611a4e565b6000610fd282610f24565b9050806001600160a01b0316836001600160a01b03160361100657604051639efa161160e01b815260040160405180910390fd5b336001600160a01b03821614801590611026575061102481336108e3565b155b1561104457604051635d84267760e11b815260040160405180910390fd5b610b8c8383611c45565b6110566118ec565b6000805460ff19166001179055565b8061106f81611580565b610ce582611cb3565b6000611083826114dd565b506000908152601460205260409020546001600160a01b031690565b606060038054610a5b90612b8a565b6060600f8054610a5b90612b8a565b600081815260086020908152604091829020805483518184028101840190945280845260609392830182828015610c7c57602002820191906000526020600020906000905b82829054906101000a90046001600160401b03166001600160401b031681526020019060080190602082600701049283019260010382029150808411611102575094979650505050505050565b610ce5338383611d88565b6111626118ec565b6001600160a01b0381161561118a5760405163016b812760e71b815260040160405180910390fd5b6001600160a01b0316600090815260016020819052604090912055565b816111b181611781565b6111bd85858585611e1f565b5050505050565b6060600c805480602002602001604051908101604052809291908181526020018280548015610ad457602002820191906000526020600020906000905b82829054906101000a90046001600160401b03166001600160401b0316815260200190600801906020826007010492830192600103820291508084116112015790505050505050905090565b611255611627565b61125e836114dd565b610b8c838383611e53565b60606016805461127890612b8a565b80601f01602080910402602001604051908101604052809291908181526020018280546112a490612b8a565b8015610c7c5780601f106112c657610100808354040283529160200191610c7c565b820191906000526020600020905b8154815290600101906020018083116112d45750939695505050505050565b60606112fe836110bd565b51826001600160401b03161061132757604051630757d52160e01b815260040160405180910390fd5b6000611332846110bd565b836001600160401b03168151811061134c5761134c612c2e565b6020026020010151905061135f81610ce9565b949350505050565b8161137181611580565b610b8c8383612021565b6113836118ec565b6001600160a01b0316600090815260016020526040812055565b336001600160a01b03831681036113c75760405163353c229360e11b815260040160405180910390fd5b6001600160a01b038181166000818152600d6020908152604080832094881680845294825291829020805460ff191687151590811790915591519182527f9c03d4f9a8db6d81765cbe2097e83f44253564fbf3c1adfb09a8067464ad3f4b91015b60405180910390a3505050565b61143d6118ec565b60005461010090046001600160a01b031661146b57604051634ece6ecf60e01b815260040160405180910390fd5b610bfb816119f5565b6000818152600b6020908152604091829020805483518184028101840190945280845260609392830182828015610c7c57600091825260209182902080546001600160401b03168452908202830192909160089101808411611102575094979650505050505050565b6000818152601060205260409020546001600160a01b0316610bfb5760405163089ba7e160e41b815260040160405180910390fd5b600081815260126020526040902080546001600160a01b0319166001600160a01b038416908117909155819061154782610f24565b6001600160a01b03167f8c5be1e5ebec7d5bd14f71427d1e84f3dd0314c0f7b2291e5b200ac8c7c3b92560405160405180910390a45050565b61158a338261212c565b610bfb5760405163eabb6dd760e01b815260040160405180910390fd5b805160008381526008602052604090205481146115d757604051633581be1d60e11b815260040160405180910390fd5b600083815260096020908152604090912083516115f6928501906125f4565b5060405183907f50a12ecfcaf26b91454fd23edbcf04185b68d6e8c7edc4e35d14392889cdf79590600090a2505050565b6000546001600160a01b0361010090910416331480159061164c575061164c33610444565b15610fb1576040516301eca16760e41b815260040160405180910390fd5b6001600160401b0382166116915760405163280d806360e01b815260040160405180910390fd5b6001600160401b038216600090815260066020526040812080546116b490612b8a565b905011156116d557604051633348dd1d60e01b815260040160405180910390fd5b6001600160401b03821660009081526006602052604090206116f78282612c8a565b50600c80546001810182556000918252600481047fdf6966c971051c3d54ec59162606531493a51404a002842f56009d7e5cf4a8c70180546001600160401b0380871660086003909516949094026101000a84810291021990911617905560405190917f8a5ccfca4023cda4a0a59a1bb73783f6b3ba77465537d0c8f2bef5eb2511552a91a25050565b61178b33826121aa565b610bfb576040516302728a9d60e41b815260040160405180910390fd5b826001600160a01b03166117bb82610f24565b6001600160a01b0316146117e25760405163e146af6f60e01b815260040160405180910390fd5b6001600160a01b038216611809576040516338f646ff60e21b815260040160405180910390fd5b600081815260126020908152604080832080546001600160a01b031990811690915560148352818420805490911690556001600160a01b03861683526011909152812080546001929061185d908490612d49565b90915550506001600160a01b038216600090815260116020526040812080546001929061188b908490612c1b565b909155505060008181526010602052604080822080546001600160a01b0319166001600160a01b0386811691821790925591518493918716917fddf252ad1be2c89b69c2b068fc378daa952ba7f163c4a11628f55a4df523b3ef91a4505050565b6000546001600160a01b03610100909104163314610fb157604051631c62d58f60e11b815260040160405180910390fd5b6000826001600160a01b03168260405160006040518083038185875af1925050503d806000811461196a576040519150601f19603f3d011682016040523d82523d6000602084013e61196f565b606091505b5050905080610b8c5760405162461bcd60e51b815260206004820152601060248201526f2a3930b739b332b9103330b4b632b21760811b604482015260640160405180910390fd5b60005460ff1615610fb15760405163ed1fa96f60e01b815260040160405180910390fd5b610ce5828260405180602001604052806000815250612216565b600080546001600160a01b03838116610100818102610100600160a81b0319851617855560405193049190911692909183917f8be0079c531659141344cd1fd0a4f28419497f9722a3daafe3b4186f6b6457e091a35050565b6000828152600b60205260409020548110611a7c57604051630757d52160e01b815260040160405180910390fd5b6000828152600b60205260408120805483908110611a9c57611a9c612c2e565b60009182526020808320600483040154868452600b909152604090922060039091166008026101000a9091046001600160401b03169150611add908361224a565b60008381526007602090815260408083206001600160401b038086168552925290912054168015611b93576000848152600860205260409020611b209082612330565b816001600160401b0316816001600160401b0316857fcf24819d4d174cc8c6cda1f2f6bdbdcb891ef4a46c61e0bab8dc06c070de5c9e60405160405180910390a460008481526007602090815260408083206001600160401b03861684529091529020805467ffffffffffffffff191690555b600084815260086020818152604080842080546001808201835591865283862060048204018054600390921690950261010090810a6001600160401b0381810219909316928a16908102929092179095558986526009845282862080549283018155865292852060108204018054600f90921660020290940a61ffff0219169092559051909186917f51e9958189f528b912f96508d6a4b68583858166eda14d580dfbd24e9a79dfdb9190a350505050565b600081815260146020526040902080546001600160a01b0319166001600160a01b0384169081179091558190611c7a82610f24565b6001600160a01b03167fa98c62723e75b26c5e5710fb12b5bf7712e6926f6dc932de622e715553f5149160405160405180910390a45050565b6000818152600b6020526040812054905b81811015611d3f576000838152600b60205260408120805483908110611cec57611cec612c2e565b6000918252602080832060048304015487845260078252604080852060039094166008026101000a9091046001600160401b031684529190529020805467ffffffffffffffff1916905550600101611cc4565b506000828152600b60205260408120611d579161269d565b60405160009083907f8d0cdca57de6b2fb4babd8b68c83db0b0981610d338eb68eea1f4b1e1d78dc1c908390a35050565b816001600160a01b0316836001600160a01b031603611dba57604051630b7b99b960e21b815260040160405180910390fd5b6001600160a01b03838116600081815260136020908152604080832094871680845294825291829020805460ff191686151590811790915591519182527f17307eab39ab6107e8899845ad3d59bd9653f200f220920489ca2b5937696c319101611428565b611e2a8484846117a8565b611e368484848461240e565b610bd85760405163bcb5663760e01b815260040160405180910390fd5b6000838152600a602090815260408083206001600160401b038616845290915290205460ff1615611e9757604051633348dd1d60e01b815260040160405180910390fd5b6001600160401b03821660009081526006602052604090208054611eba90612b8a565b9050600003611edc576040516348e2e83760e01b815260040160405180910390fd5b6000838152600b6020526040902054608011611f0b5760405163dfaea09b60e01b815260040160405180910390fd5b6000838152600a602090815260408083206001600160401b038681168086529184528285208054600160ff199091168117909155888652600b8552928520805493840181558552929093206004820401805460039092166008026101000a808402199092169190930217909155811615611fe65760008381526007602090815260408083206001600160401b0386811680865291909352818420805467ffffffffffffffff1916938616938417905590519192909186917fe76caab2912f68cd628bc085e006c86b8a478d13be698638b0c533030d120b4e91a45b6040516001600160401b0383169084907ffc4d0a03f3026d7ce3427493c9289ea9768a6edd425e854cea7600d244ecc2c390600090a3505050565b6000828152600b6020526040902054811061204f57604051630757d52160e01b815260040160405180910390fd5b6000828152600b6020526040812080548390811061206f5761206f612c2e565b60009182526020808320600483040154868452600b909152604090922060039091166008026101000a9091046001600160401b031691506120b0908361224a565b6000838152600a602090815260408083206001600160401b038516808552908352818420805460ff1916905586845260078352818420818552909252808320805467ffffffffffffffff1916905551909185917f8d0cdca57de6b2fb4babd8b68c83db0b0981610d338eb68eea1f4b1e1d78dc1c9190a3505050565b60008061213883610f24565b9050806001600160a01b0316846001600160a01b0316148061217f57506001600160a01b038082166000908152600d602090815260408083209388168352929052205460ff165b8061135f5750836001600160a01b031661219884611078565b6001600160a01b031614949350505050565b6000806121b683610f24565b9050806001600160a01b0316846001600160a01b031614806121fd57506001600160a01b0380821660009081526013602090815260408083209388168352929052205460ff165b8061135f5750836001600160a01b031661219884610ade565b6122208383612510565b61222d600084848461240e565b610b8c5760405163bcb5663760e01b815260040160405180910390fd5b8154811061225757600080fd5b8154829061226790600190612d49565b8154811061227757612277612c2e565b90600052602060002090600491828204019190066008029054906101000a90046001600160401b03168282815481106122b2576122b2612c2e565b90600052602060002090600491828204019190066008026101000a8154816001600160401b0302191690836001600160401b03160217905550818054806122fb576122fb612d5c565b60008281526020902060046000199092019182040180546001600160401b03600860038516026101000a021916905590555050565b6000828054806020026020016040519081016040528092919081815260200182805480156123af57602002820191906000526020600020906000905b82829054906101000a90046001600160401b03166001600160401b03168152602001906008019060208260070104928301926001038202915080841161236c5790505b505083519394506000925050505b818110156111bd57836001600160401b03168382815181106123e1576123e1612c2e565b60200260200101516001600160401b03160361240657612401858261224a565b6111bd565b6001016123bd565b60006001600160a01b0384163b1561250557604051630a85bd0160e11b81526001600160a01b0385169063150b7a0290612452903390899088908890600401612d72565b6020604051808303816000875af192505050801561248d575060408051601f3d908101601f1916820190925261248a91810190612daf565b60015b6124eb573d8080156124bb576040519150601f19603f3d011682016040523d82523d6000602084013e6124c0565b606091505b5080516000036124e35760405163bcb5663760e01b815260040160405180910390fd5b805181602001fd5b6001600160e01b031916630a85bd0160e11b14905061135f565b506001949350505050565b6001600160a01b038216612537576040516325bd6bd360e01b815260040160405180910390fd5b6000818152601060205260409020546001600160a01b03161561256d5760405163c5a8d37160e01b815260040160405180910390fd5b6001600160a01b0382166000908152601160205260408120805460019290612596908490612c1b565b909155505060008181526010602052604080822080546001600160a01b0319166001600160a01b03861690811790915590518392907fddf252ad1be2c89b69c2b068fc378daa952ba7f163c4a11628f55a4df523b3ef908290a45050565b82805482825590600052602060002090600f0160109004810192821561268d5791602002820160005b8382111561265d57835183826101000a81548161ffff021916908361ffff160217905550926020019260020160208160010104928301926001030261261d565b801561268b5782816101000a81549061ffff021916905560020160208160010104928301926001030261265d565b505b506126999291506126be565b5090565b508054600082556003016004900490600052602060002090810190610bfb91905b5b8082111561269957600081556001016126bf565b6001600160e01b031981168114610bfb57600080fd5b6000602082840312156126fb57600080fd5b8135612706816126d3565b9392505050565b6000815180845260005b8181101561273357602081850181015186830182015201612717565b506000602082860101526020601f19601f83011685010191505092915050565b602081526000612706602083018461270d565b60006020828403121561277857600080fd5b5035919050565b80356001600160a01b038116811461279657600080fd5b919050565b600080604083850312156127ae57600080fd5b6127b78361277f565b946020939093013593505050565b6000806000604084860312156127da57600080fd5b8335925060208401356001600160401b03808211156127f857600080fd5b818601915086601f83011261280c57600080fd5b81358181111561281b57600080fd5b8760208260051b850101111561283057600080fd5b6020830194508093505050509250925092565b634e487b7160e01b600052604160045260246000fd5b60006001600160401b038084111561287357612873612843565b604051601f8501601f19908116603f0116810190828211818310171561289b5761289b612843565b816040528093508581528686860111156128b457600080fd5b858560208301376000602087830101525050509392505050565b6000602082840312156128e057600080fd5b81356001600160401b038111156128f657600080fd5b8201601f8101841361290757600080fd5b61135f84823560208401612859565b60006020828403121561292857600080fd5b6127068261277f565b6020808252825182820181905260009190848201906040850190845b8181101561296d57835161ffff168352928401929184019160010161294d565b50909695505050505050565b60008060006060848603121561298e57600080fd5b6129978461277f565b92506129a56020850161277f565b9150604084013590509250925092565b600080604083850312156129c857600080fd5b50508035926020909101359150565b80356001600160401b038116811461279657600080fd5b600060208284031215612a0057600080fd5b612706826129d7565b6020808252825182820181905260009190848201906040850190845b8181101561296d5783516001600160401b031683529284019291840191600101612a25565b60008060408385031215612a5d57600080fd5b612a668361277f565b915060208301358015158114612a7b57600080fd5b809150509250929050565b60008060008060808587031215612a9c57600080fd5b612aa58561277f565b9350612ab36020860161277f565b92506040850135915060608501356001600160401b03811115612ad557600080fd5b8501601f81018713612ae657600080fd5b612af587823560208401612859565b91505092959194509250565b600080600060608486031215612b1657600080fd5b83359250612b26602085016129d7565b9150612b34604085016129d7565b90509250925092565b60008060408385031215612b5057600080fd5b82359150610cca602084016129d7565b60008060408385031215612b7357600080fd5b612b7c8361277f565b9150610cca6020840161277f565b600181811c90821680612b9e57607f821691505b602082108103612bbe57634e487b7160e01b600052602260045260246000fd5b50919050565b634e487b7160e01b600052601160045260246000fd5b6000816000190483118215151615612bf457612bf4612bc4565b500290565b600082612c1657634e487b7160e01b600052601260045260246000fd5b500490565b80820180821115610a4657610a46612bc4565b634e487b7160e01b600052603260045260246000fd5b601f821115610b8c57600081815260208120601f850160051c81016020861015612c6b5750805b601f850160051c820191505b81811015610f0157828155600101612c77565b81516001600160401b03811115612ca357612ca3612843565b612cb781612cb18454612b8a565b84612c44565b602080601f831160018114612cec5760008415612cd45750858301515b600019600386901b1c1916600185901b178555610f01565b600085815260208120601f198616915b82811015612d1b57888601518255948401946001909101908401612cfc565b5085821015612d395787850151600019600388901b60f8161c191681555b5050505050600190811b01905550565b81810381811115610a4657610a46612bc4565b634e487b7160e01b600052603160045260246000fd5b6001600160a01b0385811682528416602082015260408101839052608060608201819052600090612da59083018461270d565b9695505050505050565b600060208284031215612dc157600080fd5b8151612706816126d356fea2646970667358221220cef8356db89710320bdbb2bad939dac6a7d9d812f60d9192d3f8ee051139f06964736f6c63430008100033",
  "linkReferences": {},
  "deployedLinkReferences": {}
}